{
  "_format": "hh-sol-artifact-1",
  "contractName": "NFT",
  "sourceName": "contracts/NFT.sol",
  "abi": [
    {
      "inputs": [
        {
          "internalType": "address",
          "name": "marketplaceAddress",
          "type": "address"
        }
      ],
      "stateMutability": "nonpayable",
      "type": "constructor"
    },
    {
      "anonymous": false,
      "inputs": [
        {
          "indexed": true,
          "internalType": "address",
          "name": "owner",
          "type": "address"
        },
        {
          "indexed": true,
          "internalType": "address",
          "name": "approved",
          "type": "address"
        },
        {
          "indexed": true,
          "internalType": "uint256",
          "name": "tokenId",
          "type": "uint256"
        }
      ],
      "name": "Approval",
      "type": "event"
    },
    {
      "anonymous": false,
      "inputs": [
        {
          "indexed": true,
          "internalType": "address",
          "name": "owner",
          "type": "address"
        },
        {
          "indexed": true,
          "internalType": "address",
          "name": "operator",
          "type": "address"
        },
        {
          "indexed": false,
          "internalType": "bool",
          "name": "approved",
          "type": "bool"
        }
      ],
      "name": "ApprovalForAll",
      "type": "event"
    },
    {
      "anonymous": false,
      "inputs": [
        {
          "indexed": true,
          "internalType": "address",
          "name": "previousOwner",
          "type": "address"
        },
        {
          "indexed": true,
          "internalType": "address",
          "name": "newOwner",
          "type": "address"
        }
      ],
      "name": "OwnershipTransferred",
      "type": "event"
    },
    {
      "anonymous": false,
      "inputs": [
        {
          "indexed": false,
          "internalType": "uint256",
          "name": "tokenId",
          "type": "uint256"
        },
        {
          "components": [
            {
              "internalType": "address payable",
              "name": "account",
              "type": "address"
            },
            {
              "internalType": "uint96",
              "name": "value",
              "type": "uint96"
            }
          ],
          "indexed": false,
          "internalType": "struct LibPart.Part[]",
          "name": "royalties",
          "type": "tuple[]"
        }
      ],
      "name": "RoyaltiesSet",
      "type": "event"
    },
    {
      "anonymous": false,
      "inputs": [
        {
          "indexed": true,
          "internalType": "address",
          "name": "from",
          "type": "address"
        },
        {
          "indexed": true,
          "internalType": "address",
          "name": "to",
          "type": "address"
        },
        {
          "indexed": true,
          "internalType": "uint256",
          "name": "tokenId",
          "type": "uint256"
        }
      ],
      "name": "Transfer",
      "type": "event"
    },
    {
      "inputs": [
        {
          "internalType": "address",
          "name": "to",
          "type": "address"
        },
        {
          "internalType": "uint256",
          "name": "tokenId",
          "type": "uint256"
        }
      ],
      "name": "approve",
      "outputs": [],
      "stateMutability": "nonpayable",
      "type": "function"
    },
    {
      "inputs": [
        {
          "internalType": "address",
          "name": "owner",
          "type": "address"
        }
      ],
      "name": "balanceOf",
      "outputs": [
        {
          "internalType": "uint256",
          "name": "",
          "type": "uint256"
        }
      ],
      "stateMutability": "view",
      "type": "function"
    },
    {
      "inputs": [
        {
          "internalType": "string",
          "name": "tokenURI",
          "type": "string"
        }
      ],
      "name": "createToken",
      "outputs": [
        {
          "internalType": "uint256",
          "name": "",
          "type": "uint256"
        }
      ],
      "stateMutability": "nonpayable",
      "type": "function"
    },
    {
      "inputs": [
        {
          "internalType": "uint256",
          "name": "tokenId",
          "type": "uint256"
        }
      ],
      "name": "getApproved",
      "outputs": [
        {
          "internalType": "address",
          "name": "",
          "type": "address"
        }
      ],
      "stateMutability": "view",
      "type": "function"
    },
    {
      "inputs": [
        {
          "internalType": "uint256",
          "name": "id",
          "type": "uint256"
        }
      ],
      "name": "getRaribleV2Royalties",
      "outputs": [
        {
          "components": [
            {
              "internalType": "address payable",
              "name": "account",
              "type": "address"
            },
            {
              "internalType": "uint96",
              "name": "value",
              "type": "uint96"
            }
          ],
          "internalType": "struct LibPart.Part[]",
          "name": "",
          "type": "tuple[]"
        }
      ],
      "stateMutability": "view",
      "type": "function"
    },
    {
      "inputs": [
        {
          "internalType": "address",
          "name": "owner",
          "type": "address"
        },
        {
          "internalType": "address",
          "name": "operator",
          "type": "address"
        }
      ],
      "name": "isApprovedForAll",
      "outputs": [
        {
          "internalType": "bool",
          "name": "",
          "type": "bool"
        }
      ],
      "stateMutability": "view",
      "type": "function"
    },
    {
      "inputs": [],
      "name": "name",
      "outputs": [
        {
          "internalType": "string",
          "name": "",
          "type": "string"
        }
      ],
      "stateMutability": "view",
      "type": "function"
    },
    {
      "inputs": [],
      "name": "owner",
      "outputs": [
        {
          "internalType": "address",
          "name": "",
          "type": "address"
        }
      ],
      "stateMutability": "view",
      "type": "function"
    },
    {
      "inputs": [
        {
          "internalType": "uint256",
          "name": "tokenId",
          "type": "uint256"
        }
      ],
      "name": "ownerOf",
      "outputs": [
        {
          "internalType": "address",
          "name": "",
          "type": "address"
        }
      ],
      "stateMutability": "view",
      "type": "function"
    },
    {
      "inputs": [],
      "name": "renounceOwnership",
      "outputs": [],
      "stateMutability": "nonpayable",
      "type": "function"
    },
    {
      "inputs": [
        {
          "internalType": "uint256",
          "name": "",
          "type": "uint256"
        },
        {
          "internalType": "uint256",
          "name": "",
          "type": "uint256"
        }
      ],
      "name": "royalties",
      "outputs": [
        {
          "internalType": "address payable",
          "name": "account",
          "type": "address"
        },
        {
          "internalType": "uint96",
          "name": "value",
          "type": "uint96"
        }
      ],
      "stateMutability": "view",
      "type": "function"
    },
    {
      "inputs": [
        {
          "internalType": "address",
          "name": "from",
          "type": "address"
        },
        {
          "internalType": "address",
          "name": "to",
          "type": "address"
        },
        {
          "internalType": "uint256",
          "name": "tokenId",
          "type": "uint256"
        }
      ],
      "name": "safeTransferFrom",
      "outputs": [],
      "stateMutability": "nonpayable",
      "type": "function"
    },
    {
      "inputs": [
        {
          "internalType": "address",
          "name": "from",
          "type": "address"
        },
        {
          "internalType": "address",
          "name": "to",
          "type": "address"
        },
        {
          "internalType": "uint256",
          "name": "tokenId",
          "type": "uint256"
        },
        {
          "internalType": "bytes",
          "name": "_data",
          "type": "bytes"
        }
      ],
      "name": "safeTransferFrom",
      "outputs": [],
      "stateMutability": "nonpayable",
      "type": "function"
    },
    {
      "inputs": [
        {
          "internalType": "address",
          "name": "operator",
          "type": "address"
        },
        {
          "internalType": "bool",
          "name": "approved",
          "type": "bool"
        }
      ],
      "name": "setApprovalForAll",
      "outputs": [],
      "stateMutability": "nonpayable",
      "type": "function"
    },
    {
      "inputs": [
        {
          "internalType": "uint256",
          "name": "_tokenId",
          "type": "uint256"
        },
        {
          "internalType": "address payable",
          "name": "_royaltiesReceipientAddress",
          "type": "address"
        },
        {
          "internalType": "uint96",
          "name": "_percentageBasisPoints",
          "type": "uint96"
        }
      ],
      "name": "setRoyalties",
      "outputs": [],
      "stateMutability": "nonpayable",
      "type": "function"
    },
    {
      "inputs": [
        {
          "internalType": "bytes4",
          "name": "interfaceId",
          "type": "bytes4"
        }
      ],
      "name": "supportsInterface",
      "outputs": [
        {
          "internalType": "bool",
          "name": "",
          "type": "bool"
        }
      ],
      "stateMutability": "view",
      "type": "function"
    },
    {
      "inputs": [],
      "name": "symbol",
      "outputs": [
        {
          "internalType": "string",
          "name": "",
          "type": "string"
        }
      ],
      "stateMutability": "view",
      "type": "function"
    },
    {
      "inputs": [
        {
          "internalType": "uint256",
          "name": "tokenId",
          "type": "uint256"
        }
      ],
      "name": "tokenURI",
      "outputs": [
        {
          "internalType": "string",
          "name": "",
          "type": "string"
        }
      ],
      "stateMutability": "view",
      "type": "function"
    },
    {
      "inputs": [
        {
          "internalType": "address",
          "name": "from",
          "type": "address"
        },
        {
          "internalType": "address",
          "name": "to",
          "type": "address"
        },
        {
          "internalType": "uint256",
          "name": "tokenId",
          "type": "uint256"
        }
      ],
      "name": "transferFrom",
      "outputs": [],
      "stateMutability": "nonpayable",
      "type": "function"
    },
    {
      "inputs": [
        {
          "internalType": "address",
          "name": "newOwner",
          "type": "address"
        }
      ],
      "name": "transferOwnership",
      "outputs": [],
      "stateMutability": "nonpayable",
      "type": "function"
    }
  ],
  "bytecode": "0x60806040523480156200001157600080fd5b5060405162003dee38038062003dee8339818101604052810190620000379190620002d4565b6040518060400160405280600781526020017f414b52554e4654000000000000000000000000000000000000000000000000008152506040518060400160405280600481526020017f414b5255000000000000000000000000000000000000000000000000000000008152508160009080519060200190620000bb9291906200020d565b508060019080519060200190620000d49291906200020d565b505050620000f7620000eb6200013f60201b60201c565b6200014760201b60201c565b80600a60006101000a81548173ffffffffffffffffffffffffffffffffffffffff021916908373ffffffffffffffffffffffffffffffffffffffff16021790555050620003b3565b600033905090565b6000600760009054906101000a900473ffffffffffffffffffffffffffffffffffffffff16905081600760006101000a81548173ffffffffffffffffffffffffffffffffffffffff021916908373ffffffffffffffffffffffffffffffffffffffff1602179055508173ffffffffffffffffffffffffffffffffffffffff168173ffffffffffffffffffffffffffffffffffffffff167f8be0079c531659141344cd1fd0a4f28419497f9722a3daafe3b4186f6b6457e060405160405180910390a35050565b8280546200021b9062000334565b90600052602060002090601f0160209004810192826200023f57600085556200028b565b82601f106200025a57805160ff19168380011785556200028b565b828001600101855582156200028b579182015b828111156200028a5782518255916020019190600101906200026d565b5b5090506200029a91906200029e565b5090565b5b80821115620002b95760008160009055506001016200029f565b5090565b600081519050620002ce8162000399565b92915050565b600060208284031215620002e757600080fd5b6000620002f784828501620002bd565b91505092915050565b60006200030d8262000314565b9050919050565b600073ffffffffffffffffffffffffffffffffffffffff82169050919050565b600060028204905060018216806200034d57607f821691505b602082108114156200036457620003636200036a565b5b50919050565b7f4e487b7100000000000000000000000000000000000000000000000000000000600052602260045260246000fd5b620003a48162000300565b8114620003b057600080fd5b50565b613a2b80620003c36000396000f3fe608060405234801561001057600080fd5b506004361061012c5760003560e01c8063715018a6116100ad578063b88d4fde11610071578063b88d4fde14610342578063c87b56dd1461035e578063cad96cca1461038e578063e985e9c5146103be578063f2fde38b146103ee5761012c565b8063715018a6146102af5780638924af74146102b95780638da5cb5b146102ea57806395d89b4114610308578063a22cb465146103265761012c565b806323b872dd116100f457806323b872dd146101e757806342842e0e1461020357806345576f941461021f5780636352211e1461024f57806370a082311461027f5761012c565b806301ffc9a71461013157806306fdde0314610161578063081812fc1461017f578063095ea7b3146101af578063143094db146101cb575b600080fd5b61014b60048036038101906101469190612649565b61040a565b6040516101589190612cd3565b60405180910390f35b610169610473565b6040516101769190612cee565b60405180910390f35b610199600480360381019061019491906126dc565b610505565b6040516101a69190612c21565b60405180910390f35b6101c960048036038101906101c4919061260d565b61058a565b005b6101e560048036038101906101e09190612705565b6106a2565b005b61020160048036038101906101fc9190612507565b61088f565b005b61021d60048036038101906102189190612507565b6108ef565b005b6102396004803603810190610234919061269b565b61090f565b6040516102469190612f90565b60405180910390f35b610269600480360381019061026491906126dc565b610973565b6040516102769190612c21565b60405180910390f35b610299600480360381019061029491906124a2565b610a25565b6040516102a69190612f90565b60405180910390f35b6102b7610add565b005b6102d360048036038101906102ce9190612754565b610b65565b6040516102e1929190612c3c565b60405180910390f35b6102f2610bda565b6040516102ff9190612c21565b60405180910390f35b610310610c04565b60405161031d9190612cee565b60405180910390f35b610340600480360381019061033b91906125d1565b610c96565b005b61035c60048036038101906103579190612556565b610cac565b005b610378600480360381019061037391906126dc565b610d0e565b6040516103859190612cee565b60405180910390f35b6103a860048036038101906103a391906126dc565b610e60565b6040516103b59190612cb1565b60405180910390f35b6103d860048036038101906103d391906124cb565b610f62565b6040516103e59190612cd3565b60405180910390f35b610408600480360381019061040391906124a2565b610ff6565b005b600063cad96cca60e01b7bffffffffffffffffffffffffffffffffffffffffffffffffffffffff1916827bffffffffffffffffffffffffffffffffffffffffffffffffffffffff19161415610462576001905061046e565b61046b826110ee565b90505b919050565b60606000805461048290613279565b80601f01602080910402602001604051908101604052809291908181526020018280546104ae90613279565b80156104fb5780601f106104d0576101008083540402835291602001916104fb565b820191906000526020600020905b8154815290600101906020018083116104de57829003601f168201915b5050505050905090565b6000610510826111d0565b61054f576040517f08c379a000000000000000000000000000000000000000000000000000000000815260040161054690612eb0565b60405180910390fd5b6004600083815260200190815260200160002060009054906101000a900473ffffffffffffffffffffffffffffffffffffffff169050919050565b600061059582610973565b90508073ffffffffffffffffffffffffffffffffffffffff168373ffffffffffffffffffffffffffffffffffffffff161415610606576040517f08c379a00000000000000000000000000000000000000000000000000000000081526004016105fd90612f30565b60405180910390fd5b8073ffffffffffffffffffffffffffffffffffffffff1661062561123c565b73ffffffffffffffffffffffffffffffffffffffff16148061065457506106538161064e61123c565b610f62565b5b610693576040517f08c379a000000000000000000000000000000000000000000000000000000000815260040161068a90612df0565b60405180910390fd5b61069d8383611244565b505050565b6106aa61123c565b73ffffffffffffffffffffffffffffffffffffffff166106c8610bda565b73ffffffffffffffffffffffffffffffffffffffff161461071e576040517f08c379a000000000000000000000000000000000000000000000000000000000815260040161071590612ed0565b60405180910390fd5b6000600167ffffffffffffffff811115610761577f4e487b7100000000000000000000000000000000000000000000000000000000600052604160045260246000fd5b60405190808252806020026020018201604052801561079a57816020015b61078761225e565b81526020019060019003908161077f5790505b50905081816000815181106107d8577f4e487b7100000000000000000000000000000000000000000000000000000000600052603260045260246000fd5b6020026020010151602001906bffffffffffffffffffffffff1690816bffffffffffffffffffffffff16815250508281600081518110610841577f4e487b7100000000000000000000000000000000000000000000000000000000600052603260045260246000fd5b60200260200101516000019073ffffffffffffffffffffffffffffffffffffffff16908173ffffffffffffffffffffffffffffffffffffffff168152505061088984826112fd565b50505050565b6108a061089a61123c565b8261156e565b6108df576040517f08c379a00000000000000000000000000000000000000000000000000000000081526004016108d690612f50565b60405180910390fd5b6108ea83838361164c565b505050565b61090a83838360405180602001604052806000815250610cac565b505050565b600061091b60096118a8565b600061092760096118be565b905061093333826118cc565b61093d8184611a9a565b61096a600a60009054906101000a900473ffffffffffffffffffffffffffffffffffffffff166001610c96565b80915050919050565b6000806002600084815260200190815260200160002060009054906101000a900473ffffffffffffffffffffffffffffffffffffffff169050600073ffffffffffffffffffffffffffffffffffffffff168173ffffffffffffffffffffffffffffffffffffffff161415610a1c576040517f08c379a0000000000000000000000000000000000000000000000000000000008152600401610a1390612e30565b60405180910390fd5b80915050919050565b60008073ffffffffffffffffffffffffffffffffffffffff168273ffffffffffffffffffffffffffffffffffffffff161415610a96576040517f08c379a0000000000000000000000000000000000000000000000000000000008152600401610a8d90612e10565b60405180910390fd5b600360008373ffffffffffffffffffffffffffffffffffffffff1673ffffffffffffffffffffffffffffffffffffffff168152602001908152602001600020549050919050565b610ae561123c565b73ffffffffffffffffffffffffffffffffffffffff16610b03610bda565b73ffffffffffffffffffffffffffffffffffffffff1614610b59576040517f08c379a0000000000000000000000000000000000000000000000000000000008152600401610b5090612ed0565b60405180910390fd5b610b636000611b0e565b565b60086020528160005260406000208181548110610b8157600080fd5b90600052602060002001600091509150508060000160009054906101000a900473ffffffffffffffffffffffffffffffffffffffff16908060000160149054906101000a90046bffffffffffffffffffffffff16905082565b6000600760009054906101000a900473ffffffffffffffffffffffffffffffffffffffff16905090565b606060018054610c1390613279565b80601f0160208091040260200160405190810160405280929190818152602001828054610c3f90613279565b8015610c8c5780601f10610c6157610100808354040283529160200191610c8c565b820191906000526020600020905b815481529060010190602001808311610c6f57829003601f168201915b5050505050905090565b610ca8610ca161123c565b8383611bd4565b5050565b610cbd610cb761123c565b8361156e565b610cfc576040517f08c379a0000000000000000000000000000000000000000000000000000000008152600401610cf390612f50565b60405180910390fd5b610d0884848484611d41565b50505050565b6060610d19826111d0565b610d58576040517f08c379a0000000000000000000000000000000000000000000000000000000008152600401610d4f90612e90565b60405180910390fd5b6000600660008481526020019081526020016000208054610d7890613279565b80601f0160208091040260200160405190810160405280929190818152602001828054610da490613279565b8015610df15780601f10610dc657610100808354040283529160200191610df1565b820191906000526020600020905b815481529060010190602001808311610dd457829003601f168201915b505050505090506000610e02611d9d565b9050600081511415610e18578192505050610e5b565b600082511115610e4d578082604051602001610e35929190612bfd565b60405160208183030381529060405292505050610e5b565b610e5684611db4565b925050505b919050565b606060086000838152602001908152602001600020805480602002602001604051908101604052809291908181526020016000905b82821015610f57578382906000526020600020016040518060400160405290816000820160009054906101000a900473ffffffffffffffffffffffffffffffffffffffff1673ffffffffffffffffffffffffffffffffffffffff1673ffffffffffffffffffffffffffffffffffffffff1681526020016000820160149054906101000a90046bffffffffffffffffffffffff166bffffffffffffffffffffffff166bffffffffffffffffffffffff168152505081526020019060010190610e95565b505050509050919050565b6000600560008473ffffffffffffffffffffffffffffffffffffffff1673ffffffffffffffffffffffffffffffffffffffff16815260200190815260200160002060008373ffffffffffffffffffffffffffffffffffffffff1673ffffffffffffffffffffffffffffffffffffffff16815260200190815260200160002060009054906101000a900460ff16905092915050565b610ffe61123c565b73ffffffffffffffffffffffffffffffffffffffff1661101c610bda565b73ffffffffffffffffffffffffffffffffffffffff1614611072576040517f08c379a000000000000000000000000000000000000000000000000000000000815260040161106990612ed0565b60405180910390fd5b600073ffffffffffffffffffffffffffffffffffffffff168173ffffffffffffffffffffffffffffffffffffffff1614156110e2576040517f08c379a00000000000000000000000000000000000000000000000000000000081526004016110d990612d30565b60405180910390fd5b6110eb81611b0e565b50565b60007f80ac58cd000000000000000000000000000000000000000000000000000000007bffffffffffffffffffffffffffffffffffffffffffffffffffffffff1916827bffffffffffffffffffffffffffffffffffffffffffffffffffffffff191614806111b957507f5b5e139f000000000000000000000000000000000000000000000000000000007bffffffffffffffffffffffffffffffffffffffffffffffffffffffff1916827bffffffffffffffffffffffffffffffffffffffffffffffffffffffff1916145b806111c957506111c882611e5b565b5b9050919050565b60008073ffffffffffffffffffffffffffffffffffffffff166002600084815260200190815260200160002060009054906101000a900473ffffffffffffffffffffffffffffffffffffffff1673ffffffffffffffffffffffffffffffffffffffff1614159050919050565b600033905090565b816004600083815260200190815260200160002060006101000a81548173ffffffffffffffffffffffffffffffffffffffff021916908373ffffffffffffffffffffffffffffffffffffffff160217905550808273ffffffffffffffffffffffffffffffffffffffff166112b783610973565b73ffffffffffffffffffffffffffffffffffffffff167f8c5be1e5ebec7d5bd14f71427d1e84f3dd0314c0f7b2291e5b200ac8c7c3b92560405160405180910390a45050565b60005b815181101561155f57600073ffffffffffffffffffffffffffffffffffffffff1682828151811061135a577f4e487b7100000000000000000000000000000000000000000000000000000000600052603260045260246000fd5b60200260200101516000015173ffffffffffffffffffffffffffffffffffffffff1614156113bd576040517f08c379a00000000000000000000000000000000000000000000000000000000081526004016113b490612f70565b60405180910390fd5b60008282815181106113f8577f4e487b7100000000000000000000000000000000000000000000000000000000600052603260045260246000fd5b6020026020010151602001516bffffffffffffffffffffffff161415611453576040517f08c379a000000000000000000000000000000000000000000000000000000000815260040161144a90612dd0565b60405180910390fd5b6008600084815260200190815260200160002082828151811061149f577f4e487b7100000000000000000000000000000000000000000000000000000000600052603260045260246000fd5b60200260200101519080600181540180825580915050600190039060005260206000200160009091909190915060008201518160000160006101000a81548173ffffffffffffffffffffffffffffffffffffffff021916908373ffffffffffffffffffffffffffffffffffffffff16021790555060208201518160000160146101000a8154816bffffffffffffffffffffffff02191690836bffffffffffffffffffffffff16021790555050508080611557906132dc565b915050611300565b5061156a8282611ec5565b5050565b6000611579826111d0565b6115b8576040517f08c379a00000000000000000000000000000000000000000000000000000000081526004016115af90612db0565b60405180910390fd5b60006115c383610973565b90508073ffffffffffffffffffffffffffffffffffffffff168473ffffffffffffffffffffffffffffffffffffffff16148061163257508373ffffffffffffffffffffffffffffffffffffffff1661161a84610505565b73ffffffffffffffffffffffffffffffffffffffff16145b8061164357506116428185610f62565b5b91505092915050565b8273ffffffffffffffffffffffffffffffffffffffff1661166c82610973565b73ffffffffffffffffffffffffffffffffffffffff16146116c2576040517f08c379a00000000000000000000000000000000000000000000000000000000081526004016116b990612ef0565b60405180910390fd5b600073ffffffffffffffffffffffffffffffffffffffff168273ffffffffffffffffffffffffffffffffffffffff161415611732576040517f08c379a000000000000000000000000000000000000000000000000000000000815260040161172990612d70565b60405180910390fd5b61173d838383611f02565b611748600082611244565b6001600360008573ffffffffffffffffffffffffffffffffffffffff1673ffffffffffffffffffffffffffffffffffffffff16815260200190815260200160002060008282546117989190613165565b925050819055506001600360008473ffffffffffffffffffffffffffffffffffffffff1673ffffffffffffffffffffffffffffffffffffffff16815260200190815260200160002060008282546117ef91906130de565b92505081905550816002600083815260200190815260200160002060006101000a81548173ffffffffffffffffffffffffffffffffffffffff021916908373ffffffffffffffffffffffffffffffffffffffff160217905550808273ffffffffffffffffffffffffffffffffffffffff168473ffffffffffffffffffffffffffffffffffffffff167fddf252ad1be2c89b69c2b068fc378daa952ba7f163c4a11628f55a4df523b3ef60405160405180910390a4505050565b6001816000016000828254019250508190555050565b600081600001549050919050565b600073ffffffffffffffffffffffffffffffffffffffff168273ffffffffffffffffffffffffffffffffffffffff16141561193c576040517f08c379a000000000000000000000000000000000000000000000000000000000815260040161193390612e70565b60405180910390fd5b611945816111d0565b15611985576040517f08c379a000000000000000000000000000000000000000000000000000000000815260040161197c90612d50565b60405180910390fd5b61199160008383611f02565b6001600360008473ffffffffffffffffffffffffffffffffffffffff1673ffffffffffffffffffffffffffffffffffffffff16815260200190815260200160002060008282546119e191906130de565b92505081905550816002600083815260200190815260200160002060006101000a81548173ffffffffffffffffffffffffffffffffffffffff021916908373ffffffffffffffffffffffffffffffffffffffff160217905550808273ffffffffffffffffffffffffffffffffffffffff16600073ffffffffffffffffffffffffffffffffffffffff167fddf252ad1be2c89b69c2b068fc378daa952ba7f163c4a11628f55a4df523b3ef60405160405180910390a45050565b611aa3826111d0565b611ae2576040517f08c379a0000000000000000000000000000000000000000000000000000000008152600401611ad990612e50565b60405180910390fd5b80600660008481526020019081526020016000209080519060200190611b0992919061229c565b505050565b6000600760009054906101000a900473ffffffffffffffffffffffffffffffffffffffff16905081600760006101000a81548173ffffffffffffffffffffffffffffffffffffffff021916908373ffffffffffffffffffffffffffffffffffffffff1602179055508173ffffffffffffffffffffffffffffffffffffffff168173ffffffffffffffffffffffffffffffffffffffff167f8be0079c531659141344cd1fd0a4f28419497f9722a3daafe3b4186f6b6457e060405160405180910390a35050565b8173ffffffffffffffffffffffffffffffffffffffff168373ffffffffffffffffffffffffffffffffffffffff161415611c43576040517f08c379a0000000000000000000000000000000000000000000000000000000008152600401611c3a90612d90565b60405180910390fd5b80600560008573ffffffffffffffffffffffffffffffffffffffff1673ffffffffffffffffffffffffffffffffffffffff16815260200190815260200160002060008473ffffffffffffffffffffffffffffffffffffffff1673ffffffffffffffffffffffffffffffffffffffff16815260200190815260200160002060006101000a81548160ff0219169083151502179055508173ffffffffffffffffffffffffffffffffffffffff168373ffffffffffffffffffffffffffffffffffffffff167f17307eab39ab6107e8899845ad3d59bd9653f200f220920489ca2b5937696c3183604051611d349190612cd3565b60405180910390a3505050565b611d4c84848461164c565b611d5884848484611f07565b611d97576040517f08c379a0000000000000000000000000000000000000000000000000000000008152600401611d8e90612d10565b60405180910390fd5b50505050565b606060405180602001604052806000815250905090565b6060611dbf826111d0565b611dfe576040517f08c379a0000000000000000000000000000000000000000000000000000000008152600401611df590612f10565b60405180910390fd5b6000611e08611d9d565b90506000815111611e285760405180602001604052806000815250611e53565b80611e328461209e565b604051602001611e43929190612bfd565b6040516020818303038152906040525b915050919050565b60007f01ffc9a7000000000000000000000000000000000000000000000000000000007bffffffffffffffffffffffffffffffffffffffffffffffffffffffff1916827bffffffffffffffffffffffffffffffffffffffffffffffffffffffff1916149050919050565b7f3fa96d7b6bcbfe71ef171666d84db3cf52fa2d1c8afdb1cc8e486177f208b7df8282604051611ef6929190612fab565b60405180910390a15050565b505050565b6000611f288473ffffffffffffffffffffffffffffffffffffffff1661224b565b15612091578373ffffffffffffffffffffffffffffffffffffffff1663150b7a02611f5161123c565b8786866040518563ffffffff1660e01b8152600401611f739493929190612c65565b602060405180830381600087803b158015611f8d57600080fd5b505af1925050508015611fbe57506040513d601f19601f82011682018060405250810190611fbb9190612672565b60015b612041573d8060008114611fee576040519150601f19603f3d011682016040523d82523d6000602084013e611ff3565b606091505b50600081511415612039576040517f08c379a000000000000000000000000000000000000000000000000000000000815260040161203090612d10565b60405180910390fd5b805181602001fd5b63150b7a0260e01b7bffffffffffffffffffffffffffffffffffffffffffffffffffffffff1916817bffffffffffffffffffffffffffffffffffffffffffffffffffffffff191614915050612096565b600190505b949350505050565b606060008214156120e6576040518060400160405280600181526020017f30000000000000000000000000000000000000000000000000000000000000008152509050612246565b600082905060005b60008214612118578080612101906132dc565b915050600a826121119190613134565b91506120ee565b60008167ffffffffffffffff81111561215a577f4e487b7100000000000000000000000000000000000000000000000000000000600052604160045260246000fd5b6040519080825280601f01601f19166020018201604052801561218c5781602001600182028036833780820191505090505b5090505b6000851461223f576001826121a59190613165565b9150600a856121b49190613325565b60306121c091906130de565b60f81b8183815181106121fc577f4e487b7100000000000000000000000000000000000000000000000000000000600052603260045260246000fd5b60200101907effffffffffffffffffffffffffffffffffffffffffffffffffffffffffffff1916908160001a905350600a856122389190613134565b9450612190565b8093505050505b919050565b600080823b905060008111915050919050565b6040518060400160405280600073ffffffffffffffffffffffffffffffffffffffff16815260200160006bffffffffffffffffffffffff1681525090565b8280546122a890613279565b90600052602060002090601f0160209004810192826122ca5760008555612311565b82601f106122e357805160ff1916838001178555612311565b82800160010185558215612311579182015b828111156123105782518255916020019190600101906122f5565b5b50905061231e9190612322565b5090565b5b8082111561233b576000816000905550600101612323565b5090565b600061235261234d84613000565b612fdb565b90508281526020810184848401111561236a57600080fd5b612375848285613237565b509392505050565b600061239061238b84613031565b612fdb565b9050828152602081018484840111156123a857600080fd5b6123b3848285613237565b509392505050565b6000813590506123ca8161396b565b92915050565b6000813590506123df81613982565b92915050565b6000813590506123f481613999565b92915050565b600081359050612409816139b0565b92915050565b60008151905061241e816139b0565b92915050565b600082601f83011261243557600080fd5b813561244584826020860161233f565b91505092915050565b600082601f83011261245f57600080fd5b813561246f84826020860161237d565b91505092915050565b600081359050612487816139c7565b92915050565b60008135905061249c816139de565b92915050565b6000602082840312156124b457600080fd5b60006124c2848285016123bb565b91505092915050565b600080604083850312156124de57600080fd5b60006124ec858286016123bb565b92505060206124fd858286016123bb565b9150509250929050565b60008060006060848603121561251c57600080fd5b600061252a868287016123bb565b935050602061253b868287016123bb565b925050604061254c86828701612478565b9150509250925092565b6000806000806080858703121561256c57600080fd5b600061257a878288016123bb565b945050602061258b878288016123bb565b935050604061259c87828801612478565b925050606085013567ffffffffffffffff8111156125b957600080fd5b6125c587828801612424565b91505092959194509250565b600080604083850312156125e457600080fd5b60006125f2858286016123bb565b9250506020612603858286016123e5565b9150509250929050565b6000806040838503121561262057600080fd5b600061262e858286016123bb565b925050602061263f85828601612478565b9150509250929050565b60006020828403121561265b57600080fd5b6000612669848285016123fa565b91505092915050565b60006020828403121561268457600080fd5b60006126928482850161240f565b91505092915050565b6000602082840312156126ad57600080fd5b600082013567ffffffffffffffff8111156126c757600080fd5b6126d38482850161244e565b91505092915050565b6000602082840312156126ee57600080fd5b60006126fc84828501612478565b91505092915050565b60008060006060848603121561271a57600080fd5b600061272886828701612478565b9350506020612739868287016123d0565b925050604061274a8682870161248d565b9150509250925092565b6000806040838503121561276757600080fd5b600061277585828601612478565b925050602061278685828601612478565b9150509250929050565b600061279c8383612ba1565b60408301905092915050565b6127b1816131ab565b82525050565b6127c0816131ab565b82525050565b6127cf81613199565b82525050565b60006127e082613072565b6127ea81856130a0565b93506127f583613062565b8060005b8381101561282657815161280d8882612790565b975061281883613093565b9250506001810190506127f9565b5085935050505092915050565b61283c816131bd565b82525050565b600061284d8261307d565b61285781856130b1565b9350612867818560208601613246565b61287081613412565b840191505092915050565b600061288682613088565b61289081856130c2565b93506128a0818560208601613246565b6128a981613412565b840191505092915050565b60006128bf82613088565b6128c981856130d3565b93506128d9818560208601613246565b80840191505092915050565b60006128f26032836130c2565b91506128fd82613423565b604082019050919050565b60006129156026836130c2565b915061292082613472565b604082019050919050565b6000612938601c836130c2565b9150612943826134c1565b602082019050919050565b600061295b6024836130c2565b9150612966826134ea565b604082019050919050565b600061297e6019836130c2565b915061298982613539565b602082019050919050565b60006129a1602c836130c2565b91506129ac82613562565b604082019050919050565b60006129c46020836130c2565b91506129cf826135b1565b602082019050919050565b60006129e76038836130c2565b91506129f2826135da565b604082019050919050565b6000612a0a602a836130c2565b9150612a1582613629565b604082019050919050565b6000612a2d6029836130c2565b9150612a3882613678565b604082019050919050565b6000612a50602e836130c2565b9150612a5b826136c7565b604082019050919050565b6000612a736020836130c2565b9150612a7e82613716565b602082019050919050565b6000612a966031836130c2565b9150612aa18261373f565b604082019050919050565b6000612ab9602c836130c2565b9150612ac48261378e565b604082019050919050565b6000612adc6020836130c2565b9150612ae7826137dd565b602082019050919050565b6000612aff6029836130c2565b9150612b0a82613806565b604082019050919050565b6000612b22602f836130c2565b9150612b2d82613855565b604082019050919050565b6000612b456021836130c2565b9150612b50826138a4565b604082019050919050565b6000612b686031836130c2565b9150612b73826138f3565b604082019050919050565b6000612b8b601b836130c2565b9150612b9682613942565b602082019050919050565b604082016000820151612bb760008501826127a8565b506020820151612bca6020850182612bdf565b50505050565b612bd981613215565b82525050565b612be88161321f565b82525050565b612bf78161321f565b82525050565b6000612c0982856128b4565b9150612c1582846128b4565b91508190509392505050565b6000602082019050612c3660008301846127c6565b92915050565b6000604082019050612c5160008301856127b7565b612c5e6020830184612bee565b9392505050565b6000608082019050612c7a60008301876127c6565b612c8760208301866127c6565b612c946040830185612bd0565b8181036060830152612ca68184612842565b905095945050505050565b60006020820190508181036000830152612ccb81846127d5565b905092915050565b6000602082019050612ce86000830184612833565b92915050565b60006020820190508181036000830152612d08818461287b565b905092915050565b60006020820190508181036000830152612d29816128e5565b9050919050565b60006020820190508181036000830152612d4981612908565b9050919050565b60006020820190508181036000830152612d698161292b565b9050919050565b60006020820190508181036000830152612d898161294e565b9050919050565b60006020820190508181036000830152612da981612971565b9050919050565b60006020820190508181036000830152612dc981612994565b9050919050565b60006020820190508181036000830152612de9816129b7565b9050919050565b60006020820190508181036000830152612e09816129da565b9050919050565b60006020820190508181036000830152612e29816129fd565b9050919050565b60006020820190508181036000830152612e4981612a20565b9050919050565b60006020820190508181036000830152612e6981612a43565b9050919050565b60006020820190508181036000830152612e8981612a66565b9050919050565b60006020820190508181036000830152612ea981612a89565b9050919050565b60006020820190508181036000830152612ec981612aac565b9050919050565b60006020820190508181036000830152612ee981612acf565b9050919050565b60006020820190508181036000830152612f0981612af2565b9050919050565b60006020820190508181036000830152612f2981612b15565b9050919050565b60006020820190508181036000830152612f4981612b38565b9050919050565b60006020820190508181036000830152612f6981612b5b565b9050919050565b60006020820190508181036000830152612f8981612b7e565b9050919050565b6000602082019050612fa56000830184612bd0565b92915050565b6000604082019050612fc06000830185612bd0565b8181036020830152612fd281846127d5565b90509392505050565b6000612fe5612ff6565b9050612ff182826132ab565b919050565b6000604051905090565b600067ffffffffffffffff82111561301b5761301a6133e3565b5b61302482613412565b9050602081019050919050565b600067ffffffffffffffff82111561304c5761304b6133e3565b5b61305582613412565b9050602081019050919050565b6000819050602082019050919050565b600081519050919050565b600081519050919050565b600081519050919050565b6000602082019050919050565b600082825260208201905092915050565b600082825260208201905092915050565b600082825260208201905092915050565b600081905092915050565b60006130e982613215565b91506130f483613215565b9250827fffffffffffffffffffffffffffffffffffffffffffffffffffffffffffffffff0382111561312957613128613356565b5b828201905092915050565b600061313f82613215565b915061314a83613215565b92508261315a57613159613385565b5b828204905092915050565b600061317082613215565b915061317b83613215565b92508282101561318e5761318d613356565b5b828203905092915050565b60006131a4826131f5565b9050919050565b60006131b6826131f5565b9050919050565b60008115159050919050565b60007fffffffff0000000000000000000000000000000000000000000000000000000082169050919050565b600073ffffffffffffffffffffffffffffffffffffffff82169050919050565b6000819050919050565b60006bffffffffffffffffffffffff82169050919050565b82818337600083830152505050565b60005b83811015613264578082015181840152602081019050613249565b83811115613273576000848401525b50505050565b6000600282049050600182168061329157607f821691505b602082108114156132a5576132a46133b4565b5b50919050565b6132b482613412565b810181811067ffffffffffffffff821117156132d3576132d26133e3565b5b80604052505050565b60006132e782613215565b91507fffffffffffffffffffffffffffffffffffffffffffffffffffffffffffffffff82141561331a57613319613356565b5b600182019050919050565b600061333082613215565b915061333b83613215565b92508261334b5761334a613385565b5b828206905092915050565b7f4e487b7100000000000000000000000000000000000000000000000000000000600052601160045260246000fd5b7f4e487b7100000000000000000000000000000000000000000000000000000000600052601260045260246000fd5b7f4e487b7100000000000000000000000000000000000000000000000000000000600052602260045260246000fd5b7f4e487b7100000000000000000000000000000000000000000000000000000000600052604160045260246000fd5b6000601f19601f8301169050919050565b7f4552433732313a207472616e7366657220746f206e6f6e20455243373231526560008201527f63656976657220696d706c656d656e7465720000000000000000000000000000602082015250565b7f4f776e61626c653a206e6577206f776e657220697320746865207a65726f206160008201527f6464726573730000000000000000000000000000000000000000000000000000602082015250565b7f4552433732313a20746f6b656e20616c7265616479206d696e74656400000000600082015250565b7f4552433732313a207472616e7366657220746f20746865207a65726f2061646460008201527f7265737300000000000000000000000000000000000000000000000000000000602082015250565b7f4552433732313a20617070726f766520746f2063616c6c657200000000000000600082015250565b7f4552433732313a206f70657261746f7220717565727920666f72206e6f6e657860008201527f697374656e7420746f6b656e0000000000000000000000000000000000000000602082015250565b7f526f79616c74792076616c75652073686f756c6420626520706f736974697665600082015250565b7f4552433732313a20617070726f76652063616c6c6572206973206e6f74206f7760008201527f6e6572206e6f7220617070726f76656420666f7220616c6c0000000000000000602082015250565b7f4552433732313a2062616c616e636520717565727920666f7220746865207a6560008201527f726f206164647265737300000000000000000000000000000000000000000000602082015250565b7f4552433732313a206f776e657220717565727920666f72206e6f6e657869737460008201527f656e7420746f6b656e0000000000000000000000000000000000000000000000602082015250565b7f45524337323155524953746f726167653a2055524920736574206f66206e6f6e60008201527f6578697374656e7420746f6b656e000000000000000000000000000000000000602082015250565b7f4552433732313a206d696e7420746f20746865207a65726f2061646472657373600082015250565b7f45524337323155524953746f726167653a2055524920717565727920666f722060008201527f6e6f6e6578697374656e7420746f6b656e000000000000000000000000000000602082015250565b7f4552433732313a20617070726f76656420717565727920666f72206e6f6e657860008201527f697374656e7420746f6b656e0000000000000000000000000000000000000000602082015250565b7f4f776e61626c653a2063616c6c6572206973206e6f7420746865206f776e6572600082015250565b7f4552433732313a207472616e73666572206f6620746f6b656e2074686174206960008201527f73206e6f74206f776e0000000000000000000000000000000000000000000000602082015250565b7f4552433732314d657461646174613a2055524920717565727920666f72206e6f60008201527f6e6578697374656e7420746f6b656e0000000000000000000000000000000000602082015250565b7f4552433732313a20617070726f76616c20746f2063757272656e74206f776e6560008201527f7200000000000000000000000000000000000000000000000000000000000000602082015250565b7f4552433732313a207472616e736665722063616c6c6572206973206e6f74206f60008201527f776e6572206e6f7220617070726f766564000000000000000000000000000000602082015250565b7f526563697069656e742073686f756c642062652070726573656e740000000000600082015250565b61397481613199565b811461397f57600080fd5b50565b61398b816131ab565b811461399657600080fd5b50565b6139a2816131bd565b81146139ad57600080fd5b50565b6139b9816131c9565b81146139c457600080fd5b50565b6139d081613215565b81146139db57600080fd5b50565b6139e78161321f565b81146139f257600080fd5b5056fea264697066735822122044e44eed88c597fe417bdb5d0a8a169684526862a3d0d58dc57d326af0c29b0d64736f6c63430008040033",
  "linkReferences": {},
  "deployedLinkReferences": {}
}