{
  "_format": "hh-sol-artifact-1",
  "contractName": "NFTMarket",
  "sourceName": "contracts/NFTMarket.sol",
  "abi": [
    {
      "inputs": [],
      "stateMutability": "nonpayable",
      "type": "constructor"
    },
    {
      "anonymous": false,
      "inputs": [
        {
          "indexed": true,
          "internalType": "uint256",
          "name": "itemId",
          "type": "uint256"
        },
        {
          "indexed": true,
          "internalType": "address",
          "name": "nftContract",
          "type": "address"
        },
        {
          "indexed": true,
          "internalType": "uint256",
          "name": "tokenId",
          "type": "uint256"
        },
        {
          "indexed": false,
          "internalType": "address",
          "name": "seller",
          "type": "address"
        },
        {
          "indexed": false,
          "internalType": "address",
          "name": "owner",
          "type": "address"
        },
        {
          "indexed": false,
          "internalType": "uint256",
          "name": "price",
          "type": "uint256"
        },
        {
          "indexed": false,
          "internalType": "bool",
          "name": "sold",
          "type": "bool"
        }
      ],
      "name": "MarketItemCreated",
      "type": "event"
    },
    {
      "inputs": [
        {
          "internalType": "address",
          "name": "nftContract",
          "type": "address"
        },
        {
          "internalType": "uint256",
          "name": "itemId",
          "type": "uint256"
        }
      ],
      "name": "createDiscountedMarketSale",
      "outputs": [],
      "stateMutability": "payable",
      "type": "function"
    },
    {
      "inputs": [
        {
          "internalType": "address",
          "name": "nftContract",
          "type": "address"
        },
        {
          "internalType": "uint256",
          "name": "tokenId",
          "type": "uint256"
        },
        {
          "internalType": "uint256",
          "name": "time",
          "type": "uint256"
        },
        {
          "internalType": "uint256",
          "name": "price",
          "type": "uint256"
        }
      ],
      "name": "createDiscountedMarketitem",
      "outputs": [],
      "stateMutability": "payable",
      "type": "function"
    },
    {
      "inputs": [
        {
          "internalType": "address",
          "name": "nftContract",
          "type": "address"
        },
        {
          "internalType": "uint256",
          "name": "tokenId",
          "type": "uint256"
        },
        {
          "internalType": "uint256",
          "name": "price",
          "type": "uint256"
        }
      ],
      "name": "createMarketItem",
      "outputs": [],
      "stateMutability": "payable",
      "type": "function"
    },
    {
      "inputs": [
        {
          "internalType": "address",
          "name": "nftContract",
          "type": "address"
        },
        {
          "internalType": "uint256",
          "name": "itemId",
          "type": "uint256"
        }
      ],
      "name": "createMarketSale",
      "outputs": [],
      "stateMutability": "payable",
      "type": "function"
    },
    {
      "inputs": [],
      "name": "fetchItemsCreated",
      "outputs": [
        {
          "components": [
            {
              "internalType": "uint256",
              "name": "itemId",
              "type": "uint256"
            },
            {
              "internalType": "address",
              "name": "nftContract",
              "type": "address"
            },
            {
              "internalType": "uint256",
              "name": "tokenId",
              "type": "uint256"
            },
            {
              "internalType": "address payable",
              "name": "seller",
              "type": "address"
            },
            {
              "internalType": "address payable",
              "name": "owner",
              "type": "address"
            },
            {
              "internalType": "uint256",
              "name": "price",
              "type": "uint256"
            },
            {
              "internalType": "bool",
              "name": "sold",
              "type": "bool"
            }
          ],
          "internalType": "struct NFTMarket.MarketItem[]",
          "name": "",
          "type": "tuple[]"
        }
      ],
      "stateMutability": "view",
      "type": "function"
    },
    {
      "inputs": [],
      "name": "fetchMarketItems",
      "outputs": [
        {
          "components": [
            {
              "internalType": "uint256",
              "name": "itemId",
              "type": "uint256"
            },
            {
              "internalType": "address",
              "name": "nftContract",
              "type": "address"
            },
            {
              "internalType": "uint256",
              "name": "tokenId",
              "type": "uint256"
            },
            {
              "internalType": "address payable",
              "name": "seller",
              "type": "address"
            },
            {
              "internalType": "address payable",
              "name": "owner",
              "type": "address"
            },
            {
              "internalType": "uint256",
              "name": "price",
              "type": "uint256"
            },
            {
              "internalType": "bool",
              "name": "sold",
              "type": "bool"
            }
          ],
          "internalType": "struct NFTMarket.MarketItem[]",
          "name": "",
          "type": "tuple[]"
        }
      ],
      "stateMutability": "view",
      "type": "function"
    },
    {
      "inputs": [],
      "name": "fetchMyNFTs",
      "outputs": [
        {
          "components": [
            {
              "internalType": "uint256",
              "name": "itemId",
              "type": "uint256"
            },
            {
              "internalType": "address",
              "name": "nftContract",
              "type": "address"
            },
            {
              "internalType": "uint256",
              "name": "tokenId",
              "type": "uint256"
            },
            {
              "internalType": "address payable",
              "name": "seller",
              "type": "address"
            },
            {
              "internalType": "address payable",
              "name": "owner",
              "type": "address"
            },
            {
              "internalType": "uint256",
              "name": "price",
              "type": "uint256"
            },
            {
              "internalType": "bool",
              "name": "sold",
              "type": "bool"
            }
          ],
          "internalType": "struct NFTMarket.MarketItem[]",
          "name": "",
          "type": "tuple[]"
        }
      ],
      "stateMutability": "view",
      "type": "function"
    },
    {
      "inputs": [],
      "name": "getListingPrice",
      "outputs": [
        {
          "internalType": "uint256",
          "name": "",
          "type": "uint256"
        }
      ],
      "stateMutability": "view",
      "type": "function"
    }
  ],
  "bytecode": "0x60806040526658d15e176280006004556203f48060055534801561002257600080fd5b50600160008190555033600360006101000a81548173ffffffffffffffffffffffffffffffffffffffff021916908373ffffffffffffffffffffffffffffffffffffffff1602179055506120fe8061007b6000396000f3fe60806040526004361061007b5760003560e01c80635e77e4031161004e5780635e77e4031461011d578063c23b139e14610139578063e3072e3d14610155578063f064c32e146101715761007b565b80630f08efe01461008057806312e85585146100ab578063202e3740146100d657806358eb2df514610101575b600080fd5b34801561008c57600080fd5b5061009561019c565b6040516100a29190611c8d565b60405180910390f35b3480156100b757600080fd5b506100c06104b2565b6040516100cd9190611d2f565b60405180910390f35b3480156100e257600080fd5b506100eb6104bc565b6040516100f89190611c8d565b60405180910390f35b61011b60048036038101906101169190611966565b610856565b005b6101376004803603810190610132919061192a565b610bba565b005b610153600480360381019061014e919061192a565b610e73565b005b61016f600480360381019061016a91906119b5565b61112c565b005b34801561017d57600080fd5b506101866114c1565b6040516101939190611c8d565b60405180910390f35b606060006101aa600161185b565b905060006101b8600261185b565b6101c2600161185b565b6101cc9190611e75565b90506000808267ffffffffffffffff811115610211577f4e487b7100000000000000000000000000000000000000000000000000000000600052604160045260246000fd5b60405190808252806020026020018201604052801561024a57816020015b61023761187f565b81526020019060019003908161022f5790505b50905060005b848110156104a757600073ffffffffffffffffffffffffffffffffffffffff16600660006001846102819190611d94565b815260200190815260200160002060040160009054906101000a900473ffffffffffffffffffffffffffffffffffffffff1673ffffffffffffffffffffffffffffffffffffffff1614156104945760006001826102de9190611d94565b90506000600660008381526020019081526020016000209050806040518060e0016040529081600082015481526020016001820160009054906101000a900473ffffffffffffffffffffffffffffffffffffffff1673ffffffffffffffffffffffffffffffffffffffff1673ffffffffffffffffffffffffffffffffffffffff168152602001600282015481526020016003820160009054906101000a900473ffffffffffffffffffffffffffffffffffffffff1673ffffffffffffffffffffffffffffffffffffffff1673ffffffffffffffffffffffffffffffffffffffff1681526020016004820160009054906101000a900473ffffffffffffffffffffffffffffffffffffffff1673ffffffffffffffffffffffffffffffffffffffff1673ffffffffffffffffffffffffffffffffffffffff168152602001600582015481526020016006820160009054906101000a900460ff161515151581525050848681518110610477577f4e487b7100000000000000000000000000000000000000000000000000000000600052603260045260246000fd5b602002602001018190525060018561048f9190611d94565b945050505b808061049f90611f03565b915050610250565b508094505050505090565b6000600454905090565b606060006104ca600161185b565b905060008060005b83811015610573573373ffffffffffffffffffffffffffffffffffffffff16600660006001846105029190611d94565b815260200190815260200160002060040160009054906101000a900473ffffffffffffffffffffffffffffffffffffffff1673ffffffffffffffffffffffffffffffffffffffff1614156105605760018361055d9190611d94565b92505b808061056b90611f03565b9150506104d2565b5060008267ffffffffffffffff8111156105b6577f4e487b7100000000000000000000000000000000000000000000000000000000600052604160045260246000fd5b6040519080825280602002602001820160405280156105ef57816020015b6105dc61187f565b8152602001906001900390816105d45790505b50905060005b8481101561084b573373ffffffffffffffffffffffffffffffffffffffff16600660006001846106259190611d94565b815260200190815260200160002060040160009054906101000a900473ffffffffffffffffffffffffffffffffffffffff1673ffffffffffffffffffffffffffffffffffffffff1614156108385760006001826106829190611d94565b90506000600660008381526020019081526020016000209050806040518060e0016040529081600082015481526020016001820160009054906101000a900473ffffffffffffffffffffffffffffffffffffffff1673ffffffffffffffffffffffffffffffffffffffff1673ffffffffffffffffffffffffffffffffffffffff168152602001600282015481526020016003820160009054906101000a900473ffffffffffffffffffffffffffffffffffffffff1673ffffffffffffffffffffffffffffffffffffffff1673ffffffffffffffffffffffffffffffffffffffff1681526020016004820160009054906101000a900473ffffffffffffffffffffffffffffffffffffffff1673ffffffffffffffffffffffffffffffffffffffff1673ffffffffffffffffffffffffffffffffffffffff168152602001600582015481526020016006820160009054906101000a900460ff16151515158152505084868151811061081b577f4e487b7100000000000000000000000000000000000000000000000000000000600052603260045260246000fd5b60200260200101819052506001856108339190611d94565b945050505b808061084390611f03565b9150506105f5565b508094505050505090565b6002600054141561089c576040517f08c379a000000000000000000000000000000000000000000000000000000000815260040161089390611cef565b60405180910390fd5b6002600081905550600081116108e7576040517f08c379a00000000000000000000000000000000000000000000000000000000081526004016108de90611d0f565b60405180910390fd5b600454341461092b576040517f08c379a000000000000000000000000000000000000000000000000000000000815260040161092290611ccf565b60405180910390fd5b6109356001611869565b6000610941600161185b565b90506040518060e001604052808281526020018573ffffffffffffffffffffffffffffffffffffffff1681526020018481526020013373ffffffffffffffffffffffffffffffffffffffff168152602001600073ffffffffffffffffffffffffffffffffffffffff16815260200183815260200160001515815250600660008381526020019081526020016000206000820151816000015560208201518160010160006101000a81548173ffffffffffffffffffffffffffffffffffffffff021916908373ffffffffffffffffffffffffffffffffffffffff1602179055506040820151816002015560608201518160030160006101000a81548173ffffffffffffffffffffffffffffffffffffffff021916908373ffffffffffffffffffffffffffffffffffffffff16021790555060808201518160040160006101000a81548173ffffffffffffffffffffffffffffffffffffffff021916908373ffffffffffffffffffffffffffffffffffffffff16021790555060a0820151816005015560c08201518160060160006101000a81548160ff0219169083151502179055509050508373ffffffffffffffffffffffffffffffffffffffff166323b872dd3330866040518463ffffffff1660e01b8152600401610b2293929190611c11565b600060405180830381600087803b158015610b3c57600080fd5b505af1158015610b50573d6000803e3d6000fd5b50505050828473ffffffffffffffffffffffffffffffffffffffff16827f045dfa01dcba2b36aba1d3dc4a874f4b0c5d2fbeb8d2c4b34a7d88c8d8f929d1336000876000604051610ba49493929190611c48565b60405180910390a4506001600081905550505050565b60026000541415610c00576040517f08c379a0000000000000000000000000000000000000000000000000000000008152600401610bf790611cef565b60405180910390fd5b6002600081905550600060076000838152602001908152602001600020600501549050600060076000848152602001908152602001600020600201549050813414610c80576040517f08c379a0000000000000000000000000000000000000000000000000000000008152600401610c7790611caf565b60405180910390fd5b6007600084815260200190815260200160002060030160009054906101000a900473ffffffffffffffffffffffffffffffffffffffff1673ffffffffffffffffffffffffffffffffffffffff166108fc349081150290604051600060405180830381858888f19350505050158015610cfc573d6000803e3d6000fd5b508373ffffffffffffffffffffffffffffffffffffffff166323b872dd3033846040518463ffffffff1660e01b8152600401610d3a93929190611c11565b600060405180830381600087803b158015610d5457600080fd5b505af1158015610d68573d6000803e3d6000fd5b50505050336007600085815260200190815260200160002060040160006101000a81548173ffffffffffffffffffffffffffffffffffffffff021916908373ffffffffffffffffffffffffffffffffffffffff16021790555060016007600085815260200190815260200160002060060160006101000a81548160ff021916908315150217905550610dfa6002611869565b600360009054906101000a900473ffffffffffffffffffffffffffffffffffffffff1673ffffffffffffffffffffffffffffffffffffffff166108fc6004549081150290604051600060405180830381858888f19350505050158015610e64573d6000803e3d6000fd5b50505060016000819055505050565b60026000541415610eb9576040517f08c379a0000000000000000000000000000000000000000000000000000000008152600401610eb090611cef565b60405180910390fd5b6002600081905550600060066000838152602001908152602001600020600501549050600060066000848152602001908152602001600020600201549050813414610f39576040517f08c379a0000000000000000000000000000000000000000000000000000000008152600401610f3090611caf565b60405180910390fd5b6006600084815260200190815260200160002060030160009054906101000a900473ffffffffffffffffffffffffffffffffffffffff1673ffffffffffffffffffffffffffffffffffffffff166108fc349081150290604051600060405180830381858888f19350505050158015610fb5573d6000803e3d6000fd5b508373ffffffffffffffffffffffffffffffffffffffff166323b872dd3033846040518463ffffffff1660e01b8152600401610ff393929190611c11565b600060405180830381600087803b15801561100d57600080fd5b505af1158015611021573d6000803e3d6000fd5b50505050336006600085815260200190815260200160002060040160006101000a81548173ffffffffffffffffffffffffffffffffffffffff021916908373ffffffffffffffffffffffffffffffffffffffff16021790555060016006600085815260200190815260200160002060060160006101000a81548160ff0219169083151502179055506110b36002611869565b600360009054906101000a900473ffffffffffffffffffffffffffffffffffffffff1673ffffffffffffffffffffffffffffffffffffffff166108fc6004549081150290604051600060405180830381858888f1935050505015801561111d573d6000803e3d6000fd5b50505060016000819055505050565b60026000541415611172576040517f08c379a000000000000000000000000000000000000000000000000000000000815260040161116990611cef565b60405180910390fd5b6002600081905550600081116111bd576040517f08c379a00000000000000000000000000000000000000000000000000000000081526004016111b490611d0f565b60405180910390fd5b6004543414611201576040517f08c379a00000000000000000000000000000000000000000000000000000000081526004016111f890611ccf565b60405180910390fd5b816005819055506112126001611869565b600061121e600161185b565b9050600060026064846112319190611dea565b61123b9190611e1b565b836112469190611e75565b90506040518060e001604052808381526020018773ffffffffffffffffffffffffffffffffffffffff1681526020018681526020013373ffffffffffffffffffffffffffffffffffffffff168152602001600073ffffffffffffffffffffffffffffffffffffffff16815260200182815260200160001515815250600760008481526020019081526020016000206000820151816000015560208201518160010160006101000a81548173ffffffffffffffffffffffffffffffffffffffff021916908373ffffffffffffffffffffffffffffffffffffffff1602179055506040820151816002015560608201518160030160006101000a81548173ffffffffffffffffffffffffffffffffffffffff021916908373ffffffffffffffffffffffffffffffffffffffff16021790555060808201518160040160006101000a81548173ffffffffffffffffffffffffffffffffffffffff021916908373ffffffffffffffffffffffffffffffffffffffff16021790555060a0820151816005015560c08201518160060160006101000a81548160ff0219169083151502179055509050508573ffffffffffffffffffffffffffffffffffffffff166323b872dd3330886040518463ffffffff1660e01b815260040161142793929190611c11565b600060405180830381600087803b15801561144157600080fd5b505af1158015611455573d6000803e3d6000fd5b50505050848673ffffffffffffffffffffffffffffffffffffffff16837f045dfa01dcba2b36aba1d3dc4a874f4b0c5d2fbeb8d2c4b34a7d88c8d8f929d13360008660006040516114a99493929190611c48565b60405180910390a45050600160008190555050505050565b606060006114cf600161185b565b905060008060005b83811015611578573373ffffffffffffffffffffffffffffffffffffffff16600660006001846115079190611d94565b815260200190815260200160002060030160009054906101000a900473ffffffffffffffffffffffffffffffffffffffff1673ffffffffffffffffffffffffffffffffffffffff161415611565576001836115629190611d94565b92505b808061157090611f03565b9150506114d7565b5060008267ffffffffffffffff8111156115bb577f4e487b7100000000000000000000000000000000000000000000000000000000600052604160045260246000fd5b6040519080825280602002602001820160405280156115f457816020015b6115e161187f565b8152602001906001900390816115d95790505b50905060005b84811015611850573373ffffffffffffffffffffffffffffffffffffffff166006600060018461162a9190611d94565b815260200190815260200160002060030160009054906101000a900473ffffffffffffffffffffffffffffffffffffffff1673ffffffffffffffffffffffffffffffffffffffff16141561183d5760006001826116879190611d94565b90506000600660008381526020019081526020016000209050806040518060e0016040529081600082015481526020016001820160009054906101000a900473ffffffffffffffffffffffffffffffffffffffff1673ffffffffffffffffffffffffffffffffffffffff1673ffffffffffffffffffffffffffffffffffffffff168152602001600282015481526020016003820160009054906101000a900473ffffffffffffffffffffffffffffffffffffffff1673ffffffffffffffffffffffffffffffffffffffff1673ffffffffffffffffffffffffffffffffffffffff1681526020016004820160009054906101000a900473ffffffffffffffffffffffffffffffffffffffff1673ffffffffffffffffffffffffffffffffffffffff1673ffffffffffffffffffffffffffffffffffffffff168152602001600582015481526020016006820160009054906101000a900460ff161515151581525050848681518110611820577f4e487b7100000000000000000000000000000000000000000000000000000000600052603260045260246000fd5b60200260200101819052506001856118389190611d94565b945050505b808061184890611f03565b9150506115fa565b508094505050505090565b600081600001549050919050565b6001816000016000828254019250508190555050565b6040518060e0016040528060008152602001600073ffffffffffffffffffffffffffffffffffffffff16815260200160008152602001600073ffffffffffffffffffffffffffffffffffffffff168152602001600073ffffffffffffffffffffffffffffffffffffffff168152602001600081526020016000151581525090565b60008135905061190f8161209a565b92915050565b600081359050611924816120b1565b92915050565b6000806040838503121561193d57600080fd5b600061194b85828601611900565b925050602061195c85828601611915565b9150509250929050565b60008060006060848603121561197b57600080fd5b600061198986828701611900565b935050602061199a86828701611915565b92505060406119ab86828701611915565b9150509250925092565b600080600080608085870312156119cb57600080fd5b60006119d987828801611900565b94505060206119ea87828801611915565b93505060406119fb87828801611915565b9250506060611a0c87828801611915565b91505092959194509250565b6000611a248383611b65565b60e08301905092915050565b611a3981611ebb565b82525050565b611a4881611ea9565b82525050565b611a5781611ea9565b82525050565b6000611a6882611d5a565b611a728185611d72565b9350611a7d83611d4a565b8060005b83811015611aae578151611a958882611a18565b9750611aa083611d65565b925050600181019050611a81565b5085935050505092915050565b611ac481611ecd565b82525050565b611ad381611ecd565b82525050565b6000611ae6604083611d83565b9150611af182611faa565b604082019050919050565b6000611b09602483611d83565b9150611b1482611ff9565b604082019050919050565b6000611b2c601f83611d83565b9150611b3782612048565b602082019050919050565b6000611b4f601c83611d83565b9150611b5a82612071565b602082019050919050565b60e082016000820151611b7b6000850182611bf3565b506020820151611b8e6020850182611a3f565b506040820151611ba16040850182611bf3565b506060820151611bb46060850182611a30565b506080820151611bc76080850182611a30565b5060a0820151611bda60a0850182611bf3565b5060c0820151611bed60c0850182611abb565b50505050565b611bfc81611ef9565b82525050565b611c0b81611ef9565b82525050565b6000606082019050611c266000830186611a4e565b611c336020830185611a4e565b611c406040830184611c02565b949350505050565b6000608082019050611c5d6000830187611a4e565b611c6a6020830186611a4e565b611c776040830185611c02565b611c846060830184611aca565b95945050505050565b60006020820190508181036000830152611ca78184611a5d565b905092915050565b60006020820190508181036000830152611cc881611ad9565b9050919050565b60006020820190508181036000830152611ce881611afc565b9050919050565b60006020820190508181036000830152611d0881611b1f565b9050919050565b60006020820190508181036000830152611d2881611b42565b9050919050565b6000602082019050611d446000830184611c02565b92915050565b6000819050602082019050919050565b600081519050919050565b6000602082019050919050565b600082825260208201905092915050565b600082825260208201905092915050565b6000611d9f82611ef9565b9150611daa83611ef9565b9250827fffffffffffffffffffffffffffffffffffffffffffffffffffffffffffffffff03821115611ddf57611dde611f4c565b5b828201905092915050565b6000611df582611ef9565b9150611e0083611ef9565b925082611e1057611e0f611f7b565b5b828204905092915050565b6000611e2682611ef9565b9150611e3183611ef9565b9250817fffffffffffffffffffffffffffffffffffffffffffffffffffffffffffffffff0483118215151615611e6a57611e69611f4c565b5b828202905092915050565b6000611e8082611ef9565b9150611e8b83611ef9565b925082821015611e9e57611e9d611f4c565b5b828203905092915050565b6000611eb482611ed9565b9050919050565b6000611ec682611ed9565b9050919050565b60008115159050919050565b600073ffffffffffffffffffffffffffffffffffffffff82169050919050565b6000819050919050565b6000611f0e82611ef9565b91507fffffffffffffffffffffffffffffffffffffffffffffffffffffffffffffffff821415611f4157611f40611f4c565b5b600182019050919050565b7f4e487b7100000000000000000000000000000000000000000000000000000000600052601160045260246000fd5b7f4e487b7100000000000000000000000000000000000000000000000000000000600052601260045260246000fd5b7f506c65617365207375626d6974207468652061736b696e67207072696365206960008201527f6e206f7264657220746f20636f6d706c65746520746865207075726368617365602082015250565b7f5072696365206d75737420626520657175616c20746f206c697374696e67207060008201527f7269636500000000000000000000000000000000000000000000000000000000602082015250565b7f5265656e7472616e637947756172643a207265656e7472616e742063616c6c00600082015250565b7f5072696365206d757374206265206174206c6561737420312077656900000000600082015250565b6120a381611ea9565b81146120ae57600080fd5b50565b6120ba81611ef9565b81146120c557600080fd5b5056fea2646970667358221220e9662e91b9db74c5a8f2e50a296b2c03e4917ec0207deed54f80dbda9f5892b564736f6c63430008040033",
  "linkReferences": {},
  "deployedLinkReferences": {}
}